:020000041000EA
:1000000000B5324B212058609868022188439860DF
:10001000D860186158612E4B002199600221596106
:100020000121F02299502B49196001219960352056
:1000300000F044F80222904214D00621196600F024
:1000400034F8196E01211966002018661A6600F04E
:100050002CF8196E196E196E052000F02FF8012189
:100060000842F9D1002199601B49196000215960AB
:100070001A491B48016001219960EB211966A021F2
:10008000196600F012F800219960164914480160C1
:100090000121996001BC002800D000471248134993
:1000A000086003C880F30888084703B5996A0420EC
:1000B0000142FBD001200142F8D103BD02B5186610
:1000C0001866FFF7F2FF186E186E02BD00000240BE
:1000D000000000180000070000035F00212200005C
:1000E000F4000018222000A00001001008ED00E03C
:1000F00000000000000000000000000074B24E7A12
:1001000000200420F7010010C3010010C5010010F9
:10011000C1010010C1010010C1010010C101001097
:10012000C1010010C1010010C1010010C701001081
:10013000C1010010C1010010C9010010CB01001065
:10014000CD010010CD010010CD010010CD01001037
:10015000CD010010CD010010CD010010CD01001027
:10016000CD010010CD010010CD010010CD01001017
:10017000CD010010CD010010CD010010CD01001007
:10018000CD010010CD010010CD010010CD010010F7
:10019000CD010010CD010010CD010010CD010010E7
:1001A000CD010010CD010010CD010010CD010010D7
:1001B000CD010010CD010010CD010010CD010010C7
:1001C00000BE00BE00BE00BE00BE00BEEFF3058054
:1001D000103800BEF2EB88712CFB051050FB0510A7
:1001E0003802001090A31AE71E481F49086006C88D
:1001F00081F3088810471D480068002801D019487D
:10020000F3E70DA40ECC002902D000F012F8F9E7B4
:100210001749184A002000E001C19142FCD116495B
:100220008847164988471649884700BEFDE701C937
:1002300001C29A42FBD3704750FB0510E00000203A
:10024000EC1900205C1406100000042000000420BB
:100250005C140610001004200010042000000000B0
:10026000704700000000000008ED00E0000000D032
:10027000EC190020E40901208D5100104D0E0010F2
:100280004D510010F8B5C04606480749091A8B10B1
:10029000C90FC91810B5491003D0044B002B00D06A
:1002A000984710BDEC190020EC1900200000000058
:1002B000054B10B5002B03D00449054800E000BFF2
:1002C000FFF7E2FF10BDC046000000004CF4002024
:1002D00054DB011010B5080002490AF089FB002028
:1002E00010BDC0469D08001010B504001F2101F08C
:1002F0002DF800222000002101F042F8002120000A
:1003000001F02CF910BDC046F0B5DE4657464E460A
:100310004546E0B583B012F09DFB002867D112F08E
:1003200029FB3C4E3C4D3D4C3D4F06E0380005F06E
:10033000AFF8FA20C00002F095F9300005F0A8F8F7
:1003400029002000374B384A12F022FB0028EDD15B
:10035000364805F09DF8364C364E374B345D374AFB
:100360003749F35CB25C715C3648009405F018F9CB
:100370000AF094FD041E48D05022334909F028FFAA
:1003800000283ED1FF21200009F09CFF2F490AF0F0
:100390003DFB2F4805F07CF82E4B2F4F9B46264BFC
:1003A0009A46264B9946264B984610E053464A46B5
:1003B00041461F48F35C305CB25C715C009058466B
:1003C00005F0EEF83C607D60642002F04BF912F01D
:1003D00035FB02F097FA3A687B6804000D00801A3A
:1003E00099410A1EE2D11D4B9842DFD8ECE71C4828
:1003F00005F04EF803B0F0BCBB46B246A946A04695
:10040000F0BD184805F044F8C6E7174805F040F875
:10041000C2E7C04674DB011094DB0110A0DB0110C1
:100420001CDC01108813000004004000A4DB011054
:10043000EB080000F0270020EA080000E9080000AF
:10044000E808000050DC011098120210D5020010DC
:10045000F4DB011048DC0110E01B00203F4B4C0096
:1004600058DB0110CCDB0110B8DB0110F0B5DE4623
:1004700057464E464546E0B585B002F043FA6D4B0F
:10048000009001910393009801991A685B68801AA3
:1004900099410A1E09D1684B984206D805B0F0BCB4
:1004A000BB46B246A946A046F0BD80235B019B46F1
:1004B000624B082500269A460427614C5A46236859
:1004C0005340E022D20113405E4A1360534680221B
:1004D0001F60520023681342FCD0636832201B0463
:1004E0001B0C0021013DF61802F0A8F8002DE5D103
:1004F000F3081F00E023DB019B46504B08269A4679
:10050000042399464E4C5A46236813404D4A1360C3
:100510004A4653461A608022520023681342FCD098
:10052000636832201B041B0C0021013EED1802F011
:1005300085F8002EE7D1C0231B019F420FD9424806
:10054000036801330322D917890F5B1813405B1A24
:100550000360039A009B019C136054609EE7802215
:10056000D20097422BD3394AED08A91880221201F4
:10057000914293D90A2201249D4202D80124524279
:100580006442314B196800291DD0196801292CD00B
:10059000196802293FD01B68032B45D02C4B1B78D0
:1005A000002BD6D12B4B1B78002B15D02A4B1A6869
:1005B0002A4B1A602A4B1A682A4B1A60C9E722484C
:1005C00003680333BEE7244C64312068801864302C
:1005D00002F0A2FC2160E1E71F4B1A68224B1A606F
:1005E0001F4B1A68214B1A60B3E71B4D09312B686A
:1005F0002868984602F090FC08190A300A2102F097
:100600008BFC40460C000A2102F086FC4346591A36
:1006100064182C60C2E7124C3A31206880183C30D4
:1006200002F07AFC2160B9E70D4D0A212B68286899
:100630009846DFE7D81B0020EF49020000E00440A5
:1006400000C0044000D004405C04012000FCFFFF17
:10065000E0090120D8110020E4110020E011002061
:100660005804012074090120DC1100204C040120F1
:1006700000B5194A83B01378002B0CD0174B1968BA
:1006800000290BD11649086800280BD00A68013AE6
:100690000A603B221A60012003B000BD1A68013ACB
:1006A0001A60F8E701210F4B107019700E4B1B7880
:1006B000002B0CD10D4B1278002A0AD00C49009166
:1006C00080210C4A89010C4804F0C8FCE3E70B4B7D
:1006D000F1E70B49F3E7C046E00901205804012087
:1006E000E4110020DF090120D811002074DC011082
:1006F00080DC011090DC01108C3600206CDC0110D5
:1007000088DC0110F0B583B0060002F0FBF8524F10
:1007100002003C687D680B00001BA9410400002911
:1007200002D14E48844205D93A607B60052E0DD037
:10073000062E01D003B0F0BD494B1A78002A78D1BB
:100740000121484A13784B401370F3E7464B474862
:100750001A68002A25D10268002A22D144490A7861
:10076000002A6FD0434A12681A60434B1B6803602B
:1007700001220B7853403B4A0B700023384813701A
:1007800003700B78002B52D03C4B1278002A4CD0CF
:100790003B49009180213B4A89013B4804F05EFCC3
:1007A000C8E7304A117800290AD031490C78002C6A
:1007B0001AD0364C24681C60354B1B680360DCE79C
:1007C000324C1D6821688D4215D02A4D1E6829685B
:1007D0008E4221D026490E78002EEBD12C681C6069
:1007E000254B1B680360C8E7224C24681C60224B21
:1007F0001B680360C1E72649056809688D42E4D19A
:100800001C49096819601C4B1B68194903600120C9
:100810000B7843400B70B0E71749066809688E42B1
:10082000D8D1216819601A4BEEE71A49B1E71A4B83
:10083000ABE700221A700E4B1B78002B09D00F4B30
:10084000084AA2E7114A12681A60114B1B6803603C
:100850008EE7114B034A98E7D01B0020F0490200B5
:10086000DF090120E0090120E411002058040120E3
:10087000D8110020DC1100204C0401206CDC011098
:1008800080DC011090DC01108C360020E01100208B
:100890007409012088DC011074DC0110F0B50D0032
:1008A000140089B0002A00D17EE0576874493800EE
:1008B00018F090FA061E20D00121724B1A784A4097
:1008C0001A701B78002B15D106226F4901232800CE
:1008D0000CF028FD6189280009F06CFD28000DF05E
:1008E0003FFB28000AF0A2FC200009F0C9F8002014
:1008F00009B0F0BD07226549E8E73800644918F0FF
:1009000069FA002816D05F4B1E70624B1E70624B56
:100910001B78002B4CD0614B1A68614B1A60614BFD
:100920001A68614B1A6001230D2228005F490CF000
:10093000F9FCCFE738005E4918F04CFA002840D0A7
:1009400038005C4918F046FA061EC3D00123102275
:100950005B42002104A80293039302F0D3FF03AB90
:1009600055490093301D02AB04AA17F0D7FF534935
:1009700004A818F017FB002840D1029B632B01D874
:10098000464A1360039B3B2B01D8464A1360424BF7
:100990001B78002B43D0414B1A68414B1A60414BE6
:1009A0001A68414B1A6095E708000AF03FFC9EE781
:1009B000434B1A683A4B1A60424B1A683A4B1A601A
:1009C000B1E73800404918F005FA334B002838D019
:1009D00001211A784A401A701B78002B28D02F4B1F
:1009E0001A682F4B1A602F4B1A682F4B1A6001237D
:1009F0000D22280035490CF095FC6BE7344904A81A
:100A000018F0D0FA0028C2D1029B632B01D82C4ADF
:100A10001360039B3B2BBAD82A4A1360B7E7284BD5
:100A20001A681F4B1A60274B1A681F4B1A6051E750
:100A3000234B1A681A4B1A60224B1A681A4B1A6019
:100A4000D5E71B78002B17D0224B0E4A1278002ACC
:100A500014D0214900918021204E214A8901300083
:100A600004F0FCFA300018F0E1FA012382B2310000
:100A700028000CF057FC2DE71A4BE6E71A49E9E786
:100A800084E70110E00901207CE7011074E7011000
:100A900098E70110DF090120D8110020E0110020A3
:100AA000E41100207409012058040120ACE7011072
:100AB000BCE70110CCE70110D4E7011004E80110F5
:100AC000DC1100204C04012014E8011028E801107A
:100AD0000CE801106CDC011080DC01108C36002069
:100AE00090DC011074DC011088DC0110F0B5C64602
:100AF0000400042100B500F029FC63081F2C38D83D
:100B0000072505201D4002F005F8FA21490302F0EF
:100B10002BFA02F01DFEF421890502F0FBFD832172
:100B2000C90502F00EFE02F03BFE2849AB008C46E0
:100B300000215A199200624411609160D1602449E9
:100B40001161012150601160012022495B198C461E
:100B50002040214A9B0001389A18C0031268C00B3C
:100B6000604410401D4A94466344186080BCB846F7
:100B7000F0BD032605201E4001F0CCFFFA214903F9
:100B800002F0F2F902F0E4FDF421890502F0C2FD61
:100B900083213500C90502F0D4FD02F001FE0B4BA4
:100BA000B2009C46A027921900260835AB005919BF
:100BB0009200890061446244D6518E60CE60044E3A
:100BC0000E61A4215050A339D151BDE7000005406A
:100BD000FFFF00000000FFFF0C0005400C10054067
:100BE000F0B54E46DE4657464546E0B589B003911E
:100BF00002928022904B0021D200814618009A4632
:100C000002F080FE04AB0193019A8C4B43CB43C2AC
:100C10001B680A211360039802F07EF9092832D874
:100C200043001B185B019B4600239C464B4607254F
:100C3000E14601249C46824A4E4629002000143693
:100C400031404B4688405F00C3B298460023F610FF
:100C5000F6014F44083656445F442800D9107918ED
:100C6000515C984301410C4203D04046F15C014382
:100C7000F1540133182BF0D1173B9846C1444B4631
:100C8000202BD9D1E14603980A2102F045F9092920
:100C900032D84B005B185B019B4600239C464B46B9
:100CA0000725E14601249C46654A4E46290020005E
:100CB000143631404B4688405F00C3B2984600234B
:100CC000F610F6014F44283656445F442800D910E8
:100CD0007918515C984301410C4203D04046F15CC5
:100CE0000143F1540133182BF0D1173B9846C1440E
:100CF0004B46202BD9D1E14602980A2102F00CF98B
:100D0000092832D843001B185B019B4600239C46F0
:100D10004B460724E14601259C46494A4E462100A0
:100D20002800143631404B4688405F00C3B29846D5
:100D30000023F610F6014F444B3656445F44200022
:100D4000D9107918515C984301410D4203D04046B7
:100D5000F15C0143F1540133182BF0D1173B984655
:100D6000C1444B46202BD9D1E14602980A2102F01A
:100D7000D3F809293CD800204B005B185B019B4647
:100D80000725012704002E4A200029003B001430CB
:100D900001408B40C010C001DBB26B309C460300A9
:100DA000534498460023660036195E440094280098
:100DB000D9107118515C984301410F4211D01900AC
:100DC0006B317F290DD840466446C15C2143C15434
:100DD00028000133D9107118515C984301410F422A
:100DE000EDD10133182BE2D1009C0134202CCBD162
:100DF0005046144B019A1B6819309B00D258FF30A3
:100E0000531C8018524601250F49FF335344891A59
:100E1000CA187F2A02D81A782A431A7001338342EB
:100E2000F6D14946504600F00BF909B0F0BCBB467C
:100E3000B246A946A046F0BD6C050120BC0A0210CE
:100E4000FC0602105C04012000FFFFFFF0B5DE4647
:100E5000454657464E46E0B58DB004F0C9FA4D48B8
:100E600016F066FF1520FFF741FE01F0F9F906AB19
:100E70000293494B002400930123484A5B420194AA
:100E800001F07CFC4649474807F032F803210E2068
:100E900000F05CFA03210F2000F058FA0022012133
:100EA0000E2000F06DFA002201210F2000F068FAF8
:100EB00000F09AF807F04EF81B20FFF715FA1A20F9
:100EC000FFF712FAD025052000F05CFB20232D0649
:100ED000AB6200220121052000F052FA062000F04A
:100EE00051FB40230022AB620121062000F048FAAA
:100EF0002D4D01222B000821052000F095FA2B0032
:100F000001220821062000F08FFA284B04A8049340
:100F1000059400F05DF8264B264C9946264B274D4C
:100F20009846274B9A462378002B01D1FFF79EFA6B
:100F30004B461968434604A81A68FFF751FE2B7800
:100F4000002BF0D001F0DEFC534606001A685B6807
:100F50000F00801A99410200002902D119498A42E2
:100F6000E1D9194BFA201A6880231B055340174A10
:100F70001B0C93461B041360800001F073FB5A4660
:100F8000114B1B681B0C1B04136053461E605F60F3
:100F9000C9E7C0460903001071060010C0BDF0FF8C
:100FA000801A0600A812002005070010007F000725
:100FB000E4110020E009012058040120DF0901208C
:100FC000C81B00207F841E003400054034100540FB
:100FD000037842788178D21AC37801325B1A0133E0
:100FE000534343607047C046F0B54746CE4680B590
:100FF0008BB003AC2200104B802723CB23C223CB22
:1010000023C21B880026138026236B4499460B4B72
:1010100002AD984623782F706B702A0002233C2182
:1010200040460096013406F08BFF4C45F2D10BB0E0
:10103000C0BCB946B046F0BDCC0A0210A8120020D0
:10104000F0B557464E464546DE462123E0B587B00B
:1010500004AC23700B78834663704B788A46A37088
:101060002223E3704B880027A38016236B44994604
:1010700080239846174E03AD424623782A706B7042
:101080002A0002233C2130000097013406F058FF6B
:101090004C45F1D153465B685D1C2800984602F030
:1010A000B9FB40230400424659460370013002F068
:1010B0002FFC2B0022003C213000009706F040FF5F
:1010C000200002F007FC07B0F0BCBB46B246A946C0
:1010D000A046F0BDA8120020D0231B061B68974A2B
:1010E0009900F0B54E46894651585A4253412F2235
:1010F00057464546DE465B4293439846904BE0B5E3
:101100009C4683B000270191E044002939D08D4BE3
:101110000F269B464246FB0808339B009C58012340
:101120003D009A460837002C22D03100214026424B
:1011300018D05B464A469A582B00EA40203BDB1702
:101140001340524613420DD1072208002A40920054
:1011500090400200EB087C483C339B001A5028006A
:10116000019B984724090135002C01D0BD42DCD3F6
:10117000202FCFD103B0F0BCBB46B246A946A04653
:10118000F0BD704B00200F229B46C608330041463D
:1011900008339B005B5801000830002B00D1B2E0FF
:1011A00017001F40BC461A420FD04C465D460F0048
:1011B0002C59203FCC40FF1727400124274204D15F
:1011C0006446614F3C36B600F4511E0900D19AE0E6
:1011D00017003740324213D04C1CA4465D464C46A3
:1011E0002C5965460E00EC401F3EF61726400124A0
:1011F000264205D1EE08544C3C363F01B60037512B
:101200001E0A00D17FE017003740324213D08C1CF9
:10121000A4465D464C462C5965460E00EC401E3EE9
:10122000F61726400124264205D1EE08464C3C36EE
:101230003F02B60037511E0B65D0170037403242CF
:101240000DD0CC1CA4465D464C462C5965460E007C
:10125000EC401D3EF61726400124264257D01E0CB6
:1012600051D014003440A44632420BD04C46354E87
:101270000F1D3659FE40B2460E0054461C3EF60F76
:1012800026424BD01E0D3ED014003440A4463242BC
:101290000BD04C462B4E4F1D3659FE40B2460E0029
:1012A00054461B3EF60F264240D01E0E2BD0140093
:1012B0003440A446324212D04C46224E8F1D36593D
:1012C000FE40B2460E0054461A3EF60F264206D1A4
:1012D0006446FE083C3627061B4CB60037511B0FF0
:1012E000CF1D002B0FD04C465D462E590124FE40E9
:1012F0001939C9173140214205D1F908124E3C3144
:101300001B0789008B51202800D03EE732E7EE080A
:101310000D4C3C363F03B6003751A0E76446FF084A
:101320003C37BE00084F2404F451ABE76446FE0886
:101330003C362705044CB6003751B6E79C27002001
:10134000304101403804012000400140094A830037
:101350009A1810B514684022544080322240064C3E
:10136000C000A44663441A60044B9C46604441603C
:1013700010BDC04604C0014004D0014000400140FF
:10138000074B8000C3181B68C90092000A435A40EB
:101390000C231340034A9446604403607047C046E0
:1013A00004C0014004D001408000002905D0064B54
:1013B0009C460223604403607047044B9C46022312
:1013C00060440360F8E7C04604E0014004F00140D7
:1013D000D0231B061B6830B50500584243412F201F
:1013E0005B4283430E48EC08844607202840800077
:1013F000814020000B4D3C3063448000A4004151EB
:101400001B19002A05D0802292019446634419607A
:1014100030BDC0229201944663441960F8E7C0468B
:101420003041014000400140F8B545469846D02380
:101430001B06DE461C689B462B4B57469A46A3006C
:101440004E469946E0B5534616004A469B5807005B
:101450000D00002B34D04346002B3FD053464A4664
:1014600041469950D0231B061C6863425C412F22E1
:101470000720634293431D4A38409446FA081100FE
:10148000800085403C311A486344890092000D5029
:101490009B18002E0ED080229201944663440121B5
:1014A0000D201D6000F08CF9F0BCBB46B246A94689
:1014B000A046F8BDC0229201944663441D60F3E744
:1014C0004346002BD1D0534641460D20995000226F
:1014D000084900F0DBF95B461C68C6E70D200549AA
:1014E00000F0CEFABAE7C0469C2700203041014008
:1014F00000400140D9100010D023F0B5C6461B06AD
:1015000098461B680C4F9B001600FA5804000D000B
:1015100000B5104209D1290014430D203200FC50BF
:1015200000F0B4F980BCB846F0BD01F0FDFB4346C5
:101530001B689B00FA58EEE73804012010B5040040
:101540000D2000F09DFAD0231B061B6802499B006A
:101550005A58A2435A5010BD380401208000002977
:1015600005D0064B9C464023604403607047044B03
:101570009C46402360440360F8E7C04604E0014015
:1015800004F001400123D02283401206936293614C
:10159000094A83009A1811684022514080320A405B
:1015A0000649C0008C4663441A60054B9C460523DF
:1015B000604443607047C04604C0014004D001400D
:1015C000004001408023DB051868000F7047C046CB
:1015D0000FB400B5084883B003F05AFF049B002BFA
:1015E00007D005A91800019103F07CFD034803F022
:1015F0004FFF012003F08EFD38E801108004021037
:10160000EFF3108072B6034A1368002BFCD0BFF3CF
:101610005F8F70472C0100D0BFF35F8F0022024B19
:101620001A6080F3108870472C0100D070B5EFF37A
:10163000108C72B60D4D2B68002BFCD0BFF35F8F62
:101640000724CB08C618C05C01230C40A3401C0033
:101650000440034207D118433070BFF35F8F2C6002
:101660008CF3108870BD1000FFF7B2FF2C0100D082
:10167000F8B54746CE46884680B5EFF3108C72B673
:10168000214D2C68002CFCD0BFF35F8F9A422CD8E0
:10169000D4080727055D061901241740BC402C42D9
:1016A0001FD007210127894609E0D408055D0619E6
:1016B0004C4639001440A1400C00294211D001329F
:1016C0009342F2D201204042BFF35F8F00220E4BC3
:1016D0001A608CF3108800280FDBC0BCB946B046F6
:1016E000F8BD254310003570EEE7BFF35F8F002390
:1016F0002B608CF31088012040424346002BECD035
:101700000898FFF765FFC0462C0100D030B5EFF315
:10171000108C72B60A4C2368002BFCD0BFF35F8F8D
:10172000072301220B409A40CD08435D9343435564
:10173000BFF35F8F002323608CF3108830BDC04659
:101740002C0100D0044A1078431CDBB2172B00D9BF
:10175000102313707047C046E811002010B5064BE7
:10176000064C82B00100009318221F232000FFF7CF
:101770007FFF02B010BDC04648E80110AC27002032
:101780000021044B044ABFF35F8F02C39342FAD196
:101790007047C046000100D0800100D0054B064ACA
:1017A0001360064A136053609360D3601361536102
:1017B000936170478080808000E400E004E400E0F2
:1017C0001F2318401E3B8340002905D0C021044A36
:1017D0004900535013607047802201498B50FAE74B
:1017E00000E100E001228240034B1B6813405A1EB7
:1017F0009341D8B27047C04600E100E00123834026
:10180000014A13607047C04600E200E0084B103008
:101810009B688000C358002B07D0064A00209B1A03
:101820002F229A424041C0B270470020FCE7C046D8
:1018300000ED00E0EC11002070B50D00EFF3108614
:1018400072B60F4A1368002BFCD0BFF35F8F0D4BAD
:1018500010309B6884001B590B4A934203D09D4271
:1018600001D001F061FA074B9B681D51BFF35F8FF8
:10187000BFF35F8F0022024B1A6086F3108870BDA1
:10188000240100D000ED00E0CD010010F0B5574676
:101890004E46DE464546E0B585B00600009117008D
:1018A000EFF3108B72B66A4A1368002BFCD0BFF3BB
:1018B0005F8F0025674B5D579A46002D00DAA9E03F
:1018C0006B00654C01935B199B009846A146C1448F
:1018D0004B4652469B7910361370604BB6009B689E
:1018E00099590B1B2F2B33D95D4B994200D0ACE09B
:1018F000019B42469C465B4B6544AD0063535A4B8B
:101900000232A218043B9B1A1B05584A5B0D65194D
:1019100013436B80564B0121AB80FF23AB71009BBF
:10192000EF71AB604B460B4319004C4B9B689951D0
:10193000BFF35F8FBFF35F8F0022454B1A608BF3BD
:10194000108805B0F0BCBB46B246A946A046F0BD23
:1019500001200A008243D3798C46BB4231D84546E8
:10196000130044491B1B5B415943090D3D4B635315
:101970003D4B02356519043B5B1B1B053B4D5B0D65
:101980002B43AA464D466B800425AC465546E044A1
:10199000131F44441B1B1B055B0D1D434B469971D4
:1019A00000999D8099604946DF71334B0143136074
:1019B000BBE75800C01880002018C179B9422FD960
:1019C00002000623D356002BF3DA02932B4B614619
:1019D0000393131D9A4604235B429C46E144504600
:1019E0004B461B1A1B055B0D9C46204B9571984678
:1019F0006346404603439380019B5A199200039B20
:101A0000A418A380029B1C4AA371009B2260E7716B
:101A1000A3608AE701F088F9002553465D574FE738
:101A2000908802934005131D9A46031561469C4613
:101A30004046D444634604302018181AE0230005B9
:101A4000400D1B0218430390C5E701F06DF94FE705
:101A5000240100D0D4090120EC11002000ED00E0A9
:101A6000CD01001000A1FFFF1C12002000E0FFFFCD
:101A700001BDFFFFAAAA00000148804701BD000088
:101A8000F0B5DE4657464E464546E0B50C0083B0FD
:101A9000EFF3108872B6634A1368002BFCD0BFF3D3
:101AA0005F8F614B61499A68030010339F00D559DD
:101AB00000938D4243D0A54254D05D4EAA1B2F2ADD
:101AC0003DD85C4B9C461B689A4601231A009946F8
:101AD0008240534613401F2201934B4602409340DD
:101AE0009A468022634650469850BFF35F8FEFF3CB
:101AF00005839B46002B37D0009B5B4501D001F04E
:101B000013F92A004B469A439068844208D177E043
:101B10004B005B189B00F3189868844236D01A007B
:101B2000062151560029F3DA844255D0019B002B3F
:101B300027D0C02251463F4B5200995019603A4B72
:101B40009B68DD51BFF35F8FBFF35F8F0022354B82
:101B50001A6088F3108803B0F0BCBB46B246A946B1
:101B6000A046F0BD0D00EAE72A004B469A43906874
:101B70008442D5D106201056130000280ADA0D0041
:101B800032E0802351462B4AD150D8E70620185620
:101B9000002822DB42001118890074188946A168C8
:101BA0009960E179D971062161569971002925DB87
:101BB000A488F11A640524154C440919E024090588
:101BC000490D24022143998013181B4A9B00117868
:101BD000F31899711070A9E713005946002914D120
:101BE000FF3191711549918013490A789A71144A0D
:101BF0009B1B5B415A43120D0A7097E71149E2E7BC
:101C00000620105613000028C4DA0F4A0F49D21AD2
:101C1000083A5002400D014399800D4952080A4389
:101C2000DA8083E7240100D000ED00E0CD01001050
:101C3000EC11002000E100E0D409012001BDFFFF0C
:101C4000AAAA000001BD00002612002000F0FFFF3C
:101C500000F8FFFF10B58308040003202040FF2494
:101C6000054AC0009446844081409B0063441A6842
:101C7000A2430A431A6010BD00E400E070B50124DD
:101C80000443EFF30581EFF3108C72B6214A136819
:101C9000002BFCD0BFF35F8F1F4B05001F4AED1ACE
:101CA0006D416A43120D1E4D8900AE6852B27658DE
:101CB000A6421CD00621595691421CD012215956D9
:101CC000914222D01E215956914220D02A215956A4
:101CD0000324914210D0134B19781A708171BFF30D
:101CE0005F8F00220B4B1A608CF3108870BDAB68BD
:101CF0000D4C5C50EFE700246100091989005B1866
:101D0000FF21997109499980E5E70124F4E702244C
:101D1000F2E7C046240100D0EC110020AAAA00007E
:101D200000ED00E0D4090120CD01001001BDFFFF4E
:101D30001F2110B5091A0248FFF7E8FC10BDC04684
:101D4000E109012010B5084B084C82B00100009356
:101D5000002205232000FFF78BFC002801DB1F2356
:101D6000181A02B010BDC04664E80110E109012054
:101D700070B504000E001500FFF7E4FC0100200020
:101D800000F006F8A680E580BFF35F8F70BDC04607
:101D9000024B9C466144890001607047400000345A
:101DA00070B5114C114DAC420FD2FF262368002BA9
:101DB0000CD0FFF7C7FC01002000FFF7E9FFA68069
:101DC000BFF35F8F0834AC42F0D370BDFFF7BAFCAD
:101DD00001002000FFF7DCFF2671BFF35F8F08349E
:101DE000AC42E3D3F1E7C046DC190020EC19002037
:101DF00010B50400FFF7A6FC01002000FFF7C8FFA4
:101E0000FF232371BFF35F8F10BDC04610B50400E0
:101E1000FFF798FC01002000FFF7BAFFFF23A38023
:101E2000BFF35F8F10BDC04610B504000120FFF75F
:101E300095FC034BC3189B002360BFF35F8F10BD5D
:101E400040000034034B9C46614489000160BFF3AD
:101E50005F8F7047400000340A4B1968EFF3108021
:101E600072B60A68002AFCD0BFF35F8F1B68BFF30D
:101E70005F8F00221A6080F3108840BF002000218D
:101E80007047C04668050120F0B5DE4657464E460D
:101E90004546E0B583B0EFF3058203231340B54A0E
:101EA000990052580091904601229A40B24B9346B5
:101EB0001A60B24B01932EE043469B881BB2002B65
:101EC00000DB99E043469B79002B00D0DDE04346E0
:101ED00008241C5F002C00DA06E143465A696300BF
:101EE0001B19DB00D3189D68DC686B1C00D107E16F
:101EF000A34B00999C4661449A6A0B69A81A9B1AE5
:101F0000984200D20D619E4800F0F4FC8C4200DD46
:101F1000EAE000D126E15B46994843634346082244
:101F20009B5E9946002BC7DB424652695B00924696
:101F30004B44DB009A4453469E68DF6800F0DAFCAD
:101F40008F42B9DC00D100E1002F00DAE1E0524617
:101F5000534654691B69019A934200D1D4E041462B
:101F600052460820085E528800042100104398471A
:101F700004000D0023002B4300D1CAE0002D00DB3C
:101F8000E7E030003900001BA94153469860D96052
:101F900000229A5E002A8FDB43465D6953009C183D
:101FA000E4002C19A768E4688C4200DD84E702D1C4
:101FB000874200D980E74646328108360DE08C42E0
:101FC00000D1D3E01E000023F25E002A0ADB53009A
:101FD0009C18E4002C19A768E4689B18DB00EB1838
:101FE0008C42ECDD53461A804B46338043469B8837
:101FF0001BB2002B00DA65E743461A69EFF3108144
:1020000072B61368002BFCD0BFF35F8F43469E88E7
:10201000012342465B42938036B21369BFF35F8F60
:1020200000221A6081F31088002E00DA4AE7434646
:102030005D69083342469C467700BF19FF00EF19DF
:10204000BB68604698460823D15E9246FC6800292A
:1020500007DA0EE0A2424FD018000023C15E00292B
:1020600006DB4B005B18DB00EB18DA68A242F1DDFF
:10207000524606800023FE5E3980002EDCDA904650
:1020800043469B79002B00D121E700234246937100
:10209000434646460821595E08364B1C24D0474625
:1020A0008946556902E006004B1C18D04B005B18AE
:1020B000DB00E8180A008C46E95E43881BB2002B5F
:1020C000F1DA01235B42DC178360C4604A4503D028
:1020D00031803B8903803A81E1464B1CE6D14C4676
:1020E000B846002C00DBF8E640BF03B0F0BCBB46AE
:1020F000B246A946A046F0BD9A684245ACD9B7E7BA
:10210000631C00D0F4E6FEE620002369984700280F
:1021100025D1534642461B8813811269EFF3108381
:1021200072B611680029FCD0BFF35F8F424651465A
:1021300052880A804246494651801269BFF35F8F38
:102140000021116083F31088B6E6864200D8FBE6D2
:10215000B2E60B4800F0CEFB0019694115E765684F
:10216000246807E7854200D8D5E6BDE7874200D856
:1021700028E737E76CF400203C700540891E00100A
:102180000040054070B52E4C2569002D04D00A2171
:102190002C48FFF7FDFD70BD2B4E0321300000F0F1
:1021A00085FBE660FFF7CEFA284B03229C46D0233E
:1021B00022701B061B6801216370254B6044A360DD
:1021C0000F23800020610220638063694942A1805F
:1021D00019800231198647311D83585218315A52DD
:1021E00075325C39995218320131995218320131E5
:1021F0009952183201319952083518329D520231E4
:1022000018329952183201319952183201319952CB
:102210001832013199521832013199521832013174
:1022200099520C4B0C49DC6001303562FFF704FB1E
:1022300001210320FFF7C4FA084B1D60A7E7C04641
:1022400034120020680501200040054040000034A1
:10225000FFFF10006CF40020891E0010386005405C
:102260000048704734120020F8B5050018200F0010
:1022700001F0D0FA041E3ED01821380001F0E8FA2F
:1022800001216061280000F025FBE5600600FFF7F2
:1022900059FAD022267012061268184B62709C46BA
:1022A0000122BBB252426044800063819B182061CE
:1022B0002281A2806380002F0BD079006269C91946
:1022C000C9000F4B89181380013318329BB28A4220
:1022D000F9D10127B7400B4BB20030000A492F62F9
:1022E000D450FFF7A9FA01213000FFF769FA074B34
:1022F0009C4665442F602000F8BDC0464000003475
:10230000FFFF00006CF40020891E00103820000040
:10231000114B70B5040098421DD001220F49057879
:102320008C46AA40C368012163441A602800FFF765
:1023300047FA0B492800FFF7A3FB280000F0C0FA7A
:1023400000212278074B60699200D15001F0C2FA57
:10235000200001F0BFFA70BD3412002038300000B8
:10236000891E00106CF40020F8B51F0008AB1B7824
:1023700004001600002B08D100F0C4FA32003B0024
:10238000121A8B41002B00DA53E02269EFF3108020
:1023900072B61368002BFCD0BFF35F8F0223E15E9F
:1023A00063694A005218D2009B18002937DB1A884B
:1023B00062802269BFF35F8F0025156080F310886B
:1023C000069A9E60DF601A61079A5A615A88013244
:1023D0005204520C101C002A1FD082B258800804EC
:1023E00010432669EFF3108772B63268002AFCD0DA
:1023F000BFF35F8FA2881A80A1802369BFF35F8F2C
:1024000000221A6087F310880B4923788C4601322A
:102410009A40E36863441A60F8BD0120DDE7236950
:10242000BFF35F8F00221A6080F3108801204042C2
:10243000F2E70020F0E7C0463C20000070B5010044
:102440000469EFF3108C72B620680028FCD0BFF34B
:102450005F8F02200D5E4C6968004019C00024188F
:10246000002D37DB208848800869BFF35F8F002686
:1024700006608CF31088E360638804980133206160
:102480005B0405985B0CA26060611A1C002B1FD0D6
:1024900093B22804628018430A69EFF3108C72B675
:1024A0001368002BFCD0BFF35F8F8B8823808D8057
:1024B0000B69BFF35F8F00221A608CF310880B78D2
:1024C00001329A40CB6808498C4663441A6070BD5B
:1024D0000122DDE70B69BFF35F8F00221A608CF3E6
:1024E000108801204042F2E73C20000010B54389EB
:1024F0000A1493421ADD53009B184269DB00D3187B
:102500000469EFF3108C72B62268002AFCD0BFF386
:102510005F8F5A88090494B2090C8A4208D0036973
:10252000BFF35F8F00221A608CF31088002010BD6B
:102530008022120214435C80012302698371BFF37D
:102540005F8F002111608CF31088044902788C465B
:102550009340C268012062441360E8E73C20000019
:1025600040787047F0B504000D0006267642F71754
:10257000C64636196F4100B582B08F4214D811D0CB
:1025800000F0C0F932003B00121A8B41002B17DC1F
:10259000002B47D02000290000F0BEF902B080BC1B
:1025A000B846F0BD8642EBD90022002316001F007A
:1025B00000F0A8F932003B00121A8B41002BE7DD36
:1025C00000F0A0F932003B00121A8B41002B0ADB0D
:1025D00000230193154B3200009315483B00FFF791
:1025E0002DFF0028D6DB00239C46B046114A124E30
:1025F000736A9F4204D8B16A8845CBD99F42C9D13A
:102600001168EFF3108072B60B68002BFCD0BFF39B
:102610005F8F1368BFF35F8F6146196080F3108886
:1026200020BFE5E7002AB5D0CAE7C046591E001012
:1026300034120020680501200040054070B50400F8
:102640000D0000F05FF98023001969411B069942D3
:1026500002D3012002494042FFF784FF70BDC0460B
:10266000FFFFFF7F70B5060000F04CF9FA2204006E
:102670000D00002330000021920001F02BF8802390
:10268000001969411B06994202D3012002494042C8
:10269000FFF768FF70BDC046FFFFFF7FF0B5CE4675
:1026A000474680B504000D0083B0EFF305878846E8
:1026B000002F3ED12E4EA1463378F06804339B00A4
:1026C000816A1B58601A5B1A98420ED320BF2949B1
:1026D00000204B6AAB4203D38A6A0130944231D85E
:1026E00003B0C0BCB946B046F0BD00F00BF9220003
:1026F0002B00121A8B41002B2FDB1F4B2200009363
:1027000030002B000197FFF799FE011E25DD194BC4
:102710005A6AAA421BD220BF3000FFF7E7FE154AD3
:102720000020536A4345DBD3926A01309145D7D9E3
:1027300008E0104900204B6AAB42D1D38A6A0130CD
:10274000A242CDD25B1B5A1E9341D8B2C8E79B6A06
:102750009C42E1D9AA42DFD1DDE7064A0020536A54
:102760004345BDD3926A01209145B9D9EAE7C046F5
:102770003412002000400540591E0010F0B5CE462E
:102780004746110080B583B004009C460C9D194358
:1027900000D16EE06146DB170193009353401E00A9
:1027A000019B4B401F0000980199361A8F416346E8
:1027B0000A996B600B9BAC606B6129612A6000F029
:1027C000A1F88023801979411B06994202D3012088
:1027D000314940422269EFF3108972B61368002B29
:1027E000FCD0BFF35F8F0223E65E6369720092192B
:1027F000D2009B18002E44DB1A8862802269904622
:10280000BFF35F8F002247463A6089F31088234A5E
:102810009860D9601A615A885D6101325204520C85
:10282000111C002A2BD088B232040243598020693F
:10283000EFF3108772B601680029FCD0BFF35F8FF9
:10284000A1881980A6802369BFF35F8F00211960DA
:1028500087F310881248237884460131994001207B
:10286000E36863441960EA6003B0C0BCB946B0468F
:10287000F0BD00230126002701229C4697E7012195
:10288000D1E72369BFF35F8F00221A6089F31088B4
:102890000020013AE7E7C046FFFFFF7F891E0010D6
:1028A0003C200000004870470040054010B5024A37
:1028B0000248FEF7BBFE10BD80E80110B0270020E3
:1028C00010B5034B01001800FEF720FF10BDC046F5
:1028D000B027002000B5054B83B0009300220323EE
:1028E0000348FEF7C5FE03B000BDC046A4E80110D2
:1028F000B02700200300416A0A00986A596A8A4298
:10290000FAD17047034B596A0A00986A596A914292
:10291000FAD1704700400540064A536A9942FCD8F4
:1029200007D1044B02E05A6A914202D19A6A82426C
:10293000F9D3704700400540F8B5DE464E4657468D
:102940004546E0B58B4605000A991800160000F0D0
:102950000BFB0A9B6C001F02324B64199C46A400BF
:102960006444636881469F4200D967602B1FDBB2D5
:102970009846012B30D9C02380229B01E318120115
:102980001A60294BAD0059599A4600291BD1730191
:10299000E026226853401E40802342465B01E31834
:1029A0001E60012A30D9802380229B01E318120186
:1029B0001A6053464A4667605A51F0BCBB46B2465D
:1029C000A946A046F8BD586900F0CEFA0130430090
:1029D0001B18033BFDD2DAE75B46012BCBD1C023AA
:1029E00003229B01E3181A60023AA3681A42FCD042
:1029F0007301E0262268AD0053401E4080230A4A3E
:102A00005B019246E3181E605A462168514003223A
:102A10000A401A6001225B469A40A3681A42FCD021
:102A2000C1E7C04600800040B8270020F0B5464608
:102A30004F46D646C0B51F00344B44009C46241870
:102A4000A4006444636888461600FF2B02D88023E4
:102A50005B006360031FDBB29A46012B30D9C023B1
:102A600080229B01E31812011A60294B85005959F5
:102A7000994600291BD17301E026226853401E406D
:102A8000802352465B01E3181E60012A30D980235F
:102A900080229B01E31812011A6080235B006360AF
:102AA0004B465F51E0BCBA46B146A846F0BD5869F6
:102AB00000F05AFA013043001B18033BFDD2DAE75D
:102AC0004346012BCBD1C02303229B01E3181A609C
:102AD000023AA3681A42FCD07301E02622688500FE
:102AE00053401E4080230A4A5B019146E3181E6052
:102AF00042462168514003220A401A60012342469F
:102B00009340A2681342FCD0C1E7C0460080004059
:102B1000B8270020014B8000C0587047B82700201C
:102B2000F8B5040021481E0017000D0000F01CFA43
:102B30000100380000F018FA069B36041B031E4300
:102B40002368002B20DB1A4B1A49E3185A1E9341C5
:102B50008022920194465B421B0B174A1B0363447D
:102B60001360164A13601F000A689743FBD1144B89
:102B70002560E2182123A06013602368002BFCDA93
:102B80000823E6601360F8BD3F2322681340AB4280
:102B9000D9D1A3681B051B0D8342D4D1EE22E36873
:102BA000D2021340B342CED1EDE7C046001BB700BE
:102BB0000040FDBF08C0004000E0004000F00040C1
:102BC0000430000010B580241C4BE4051C60002874
:102BD0001AD001231A4C18431A4BDC611A4C44409A
:102BE0001C62596298628021144BC905196017480C
:102BF00017490860E021C9041960002A07D1802222
:102C0000144B12061A6010BD0E4BD861EBE753014E
:102C10009B1A9B009A18802312015B049A4209D2E6
:102C200013000D490B60074B5A608022094BD205F7
:102C30001A60E8E7094B1A00F3E7C04600B0054008
:102C4000D3C007B0008005402D3FF84FFCFF0100C6
:102C50000820014000A00540BC5A0020FFFFFF00F3
:102C60008023024A9B000B43D362704700800540DB
:102C7000142310B50100188804331B88984710BD31
:102C8000162310B50100188802331B88984710BD21
:102C9000F8B54746CE4680B50F1E19D01423994685
:102CA000043304000025012698464B461888434605
:102CB00021681B88984701C4431E98410135404252
:102CC0000640AF42F1D13000C0BCB946B046F8BDB5
:102CD0000126F8E7142370B50400188804331B8814
:102CE0000D000549984703000020002C01DB01304E
:102CF000A04029009847C04655420000AA23064A32
:102D00001B0113602F230549D360054B19605368DD
:102D1000002BFCDA7047C0460040024000B0FA00C9
:102D2000006002407047C04610B50148FEF750FCF5
:102D3000B8E8011070B5074D074EB54209D200241E
:102D4000013E761BB60808CD984723000134B342F4
:102D5000F9D170BD10DB01104CDB011070B5074DCF
:102D6000074EB54209D20024013E761BB60808CDB5
:102D7000984723000134B342F9D170BD44DB011000
:102D80004CDB0110054B064A06491A60064A074B00
:102D90001A6010000B689843FBD1704700E00040B8
:102DA000BFCDFBFE08C00040FE7F3C0000F00040AD
:102DB000044BDB6C002B03D18022034BD2021A6040
:102DC0007047C046000011504C201150044A054B7A
:102DD0001A60054A1368DB018033FBD17047C04697
:102DE000FFFFFF0100F0004008C000404022034BFD
:102DF0009A675A671A67DA667047C04600F0014062
:102E000010B5FEF7BDFC10BD70B5044D044CA968AB
:102E1000C022200000F07CFDAC6070BD00ED00E041
:102E200000000020002310B5294C82B0A367FFF7F3
:102E300065FF0122274B1A60636C012BFCD1032232
:102E4000254B1A60224A936B012BFCD1013300936E
:102E50000121224A22480433FFF762FE05230121A3
:102E60000093204A2048FFF75BFE00220221042045
:102E70001E4BFFF7DBFD0022012105201C4BFFF755
:102E8000D5FD0022002107201A4BFFF7CFFD0022BD
:102E900000210820174BFFF7C9FD8023DB000093BA
:102EA000002200210920134BFFF746FD0022104BA2
:102EB00000210620FFF7BAFD0420FFF72BFE0E4984
:102EC00000F052F801000020FFF7CAFE02B010BD6A
:102ED000008000403CB0004030B00040002F6859F6
:102EE00000800240008C864700C00240001BB700F3
:102EF00040597307006CDC0240420F000148042176
:102F0000014B184750120020912C0010014B9B6878
:102F10001847000050120020124A936F9B0815D2E8
:102F20009066D166002905D0FFE7FFE7FFE7516F04
:102F3000106F704704B580210906C2175140002860
:102F400000D0C8431AF074FD002104BDF0B5146E22
:102F5000556E576F166FFFF7E3FF14665566576798
:102F60001667F0BD000000D0114A936F9B0813D282
:102F700010665166002905D0FFE7FFE7FFE7516FB4
:102F8000106F704704B5002801D00020C0431AF02C
:102F90004FFD002104BDC046F0B5146E556E576F4D
:102FA000166FFFF7E5FF1466556657671667F0BDA5
:102FB000000000D094464A4A926F9208624601D2BD
:102FC00028E0C046F0B5464E346E756E776F366FAA
:102FD00000F020F89446424A146655665767166713
:102FE0006246F0BD94463E4A926F9208624601D214
:102FF00054E0C046F0B53A4E346E756E776F366F5A
:1030000000F04CF89446364A1466556657671667C2
:103010006246F0BD002B24DB11D000293EDA00B55A
:10302000C943404200D1013100F038F8C943404261
:1030300000D10131DB43524200D1013300BD002AEF
:10304000EBD1002801D1002905D00020C90FC90704
:1030500001D1C043410800B51AF0DAFC0022002378
:1030600000BD00B500290ADBDB43524200D1013329
:1030700000F014F8C943404200D1013100BDC943FA
:10308000404200D10131DB43524200D1013300F014
:1030900005F8DB43524200D1013300BD002923D1A2
:1030A000002B18D1002A0CD0BC460D4F38667A662A
:1030B00000210023FFE7FFE7FFE77A6F386F6746DD
:1030C0007047002801D00748010000B51AF0A0FCA5
:1030D0000022002300BD02000B00002000217047E9
:1030E000000000D0FFFFFFFF002B00D0BFE0130C5B
:1030F00028D1002AE7D080B4114F39667A66FFE7FD
:10310000FFE730B4040C7B6F396F1B0423433B662D
:103110007A66FFE7FFE7FFE7C04684B27B6F3D6F4B
:103120001B0423433B667A66FFE7FFE7C0460023A4
:103130002C042D0C7A6F386F00196941B0BC7047B0
:10314000000000D0F0B594460025140E01D1120203
:103150000835140F01D112010435940F01D19200EA
:103160000235D40F01D152000135D40B0134254F63
:103170007C66254C3C660E0C93B2FFE7FFE7FFE749
:103180003C6F6643360C7703BE467343DF0B5B042C
:10319000C01AB941130C7343DB18C91ACE08664331
:1031A000360CB64493B273431F0F1B01C01AB941CA
:1031B000130C73431F0B1B05C01AB941860D8F02F8
:1031C0003E436643360C092D24DB520A7243801AB3
:1031D0007703460A6643360C16235B1BDE40DF404E
:1031E000BF1964466643821B7046043506330100EE
:1031F000D940A840C01900D30131A24206D2002311
:10320000F0BD0000000000D0FFFFFFFF121B0130E7
:10321000F3D3F1E709277F1BFE406446A2B2724355
:10322000801A00D20139220C7243130C1204821A44
:1032300099410B007046043513370100F940A8404E
:10324000801900D30131002B02D1A2420AD2F0BD75
:10325000013000D30131121BFAD2013BF8D1A24256
:1032600000D2F0BD013000D30131121BF7E7F0B5F9
:103270001C0C00D080E00CB400251C0A04D11B02F9
:10328000160E3343120208351C0B04D11B01160F16
:103290003343120104359C0B04D19B00960F33433A
:1032A00092000235DC0B02D192185B4101351C0003
:1032B000971864410134464F7C66464C3C660E0CC0
:1032C000FFE7FFE7FFE7C0463C6F6643360C770336
:1032D000BE4697B27743C01B00D20139C01B00D253
:1032E00001399FB27743C91BC91B170C77437E0472
:1032F000FF0B801BB941CE086643360C0C2D33DB27
:10330000B644120B1F053A431B0B97B27743C01B01
:1033100000D201399FB27743C91B170C77433E0493
:103320003F0C801BB941860D8F023E43664329271F
:103330007F1BFE400C3D7746AF40BF1930BCA2B2A8
:10334000ABB272437343801A9941220C7243130C3F
:103350001204801A994102000B000137001BA94199
:10336000F9D2781E0021F0BD0C277F1BFE40774666
:103370007F0BAF40FF19E0E700245D1C07D0144F1E
:103380007D663966FFE7FFE7FFE7FFE73C6F95B231
:103390009EB265436643401BB141150C1E0C65434C
:1033A000664336042F0C3E432D04401BB141994225
:1033B00004D202000B0020000021F0BD01D1904298
:1033C000F7D3801A994101349942F2D3F6E700000D
:1033D000000000D0FFFFFFFF48404140484018B4C4
:1033E000134B5B68019308BD18B4114B1B68019324
:1033F00008BD94460F4A926F920805D2624618B4EF
:103400000B4BDB68019308BD0A4AF0B5146E556E8C
:10341000576F166F6246FFF7F2FF064A146655664D
:1034200057671667F0BD18B4014B9B68019308BD40
:10343000F01B0020000000D0FFB55040424050403B
:1034400059404B40594000E0FFB5154F4C00640D0A
:1034500003D0BC4204D10C0314D80020090D090587
:103460005C00640D03D0BC4204D11C030AD80022C6
:103470001B0D1B0501264B4009D44B4003D58B4245
:1034800000D18242FFBD9942FCD19042FFBD0B4367
:10349000DB1803431343F5D0C9434918FFBD0000AF
:1034A000FF07000000B5FFF7CFFF01D0002000BDEF
:1034B000012000BD00B5FFF7C7FF804100BDC04639
:1034C00000B5FFF7C1FF01D9002000BD012000BDFC
:1034D00000B5FFF7B1FF01D9002000BD012000BDFC
:1034E00000B5FFF7A9FF804100BD012040054A005B
:1034F000121804D85A00121801D800207047012071
:10350000704700000021002805D17047C1174840CE
:10351000401AFAD0C90713B5064B1B6898470CBC74
:10352000441CA2401005120B0349091B090519434D
:10353000114310BD640401201F04000010B54C00AD
:10354000620D8023D218DB00D21A5B057E2A10DDC3
:103550009E3A13DACC170903490819435242D14065
:10356000640001341532202A05DAD0400843604354
:1035700010BD002010BD0846604310BDC80FC01824
:10358000013810BD18B4024B5B6A019308BD0000FE
:10359000F01B002018B4024BDB6D019308BD000046
:1035A000F01B0020C94211D300B549004908002290
:1035B00000F014F8002904D4002240428A41114648
:1035C00000BD80210906002000BD000018B4024B98
:1035D000DB6E019308BD0000F01B002018B4024B05
:1035E0009B6F019308BD0000F01B002018B4024B34
:1035F000DB6F019308BD0000F01B002010B50148EF
:10360000FDF7E6FFC4E80110132370B51D78012D06
:1036100019D014DD1D48FFF733FB06001C48FFF7E7
:103620002FFB1C4C80223100200000F071F9022D8C
:1036300006D01948FFF71CFB184B186070BD154CDD
:10364000174BA364F5E7174B124C23606360A3602C
:10365000E36023616361A361E36123626362A36248
:10366000E36223636363A363E36323646364A36428
:10367000E36423656365A365E36523666366A36608
:10368000E36623676367A367E367D9E753440000F2
:1036900053460000F01B00204C330000640401205E
:1036A000A9360010FD35001007B5604601880A0AEA
:1036B0000230DF2AFAD1C9B2820804D302884088D6
:1036C0000004104300E00068014A5050039007BD19
:1036D000F01B002051434343C9188C46110C83B2A0
:1036E0004B4310B4040C614392B280B25043624326
:1036F0001C041B0C001910BC59411304120CC018F7
:1037000051416144704700004840414048400E4BE1
:103710005B6818470C4B1B6818470C4A936F9B0853
:1037200002D2094BDB681847F0B5146E556E576F1F
:10373000166FFFF7F6FF054A14665566576716675A
:10374000F0BD014B9B68184768040120000000D0C1
:10375000491A002808D1084670470000C10FC90760
:1037600000D54042002817D0F44603B40B4B1B6829
:10377000984706BC81409E384042803107D20B06F4
:1037800007D04900490AC00510430843604701308B
:10379000F8E7490A8902F5E7704700006404012050
:1037A000014B5B6A184700006804012010B501480E
:1037B000FDF70EFFD0E70110132310B510481C7859
:1037C000FFF75EFA0100012C0AD003DD80220D48CC
:1037D00000F09EF80C48FFF74BFA0C4B186010BD38
:1037E000084C5422200000F093F82200084980324F
:1037F0002368002B00D1216004349442F8D1E9E71A
:1038000053460000680401204C330000640401208A
:10381000AD37001070B504000A4E30001AF058F9A8
:10382000200014F011FB050030001AF0E9F8002D1B
:1038300005D0054B2C199C4201D8280070BD0348C7
:10384000FDF7C6FEDC19002000000420DCE80110B2
:10385000F8B506000C000C4F38001AF039F92100B9
:10386000300014F091FA050038001AF0C9F87443DA
:10387000002D05D0054B2C199C4201D82800F8BD1D
:103880000348FDF7A5FEC046DC1900200000042017
:10389000DCE8011070B505000C000B4E30001AF08A
:1038A00017F92800210014F0D5FD050030001AF0AA
:1038B000A7F8002D05D0054B2C199C4201D82800F3
:1038C00070BD0348FDF784FEDC19002000000420D1
:1038D000DCE8011070B50400054D28001AF0F8F876
:1038E000200014F0BBFA28001AF08AF870BDC04618
:1038F000DC19002001480421014B18476012002008
:10390000912C0010014B1B6818470000601200202A
:10391000014B5B6818470000601200209A4200D2F9
:10392000885470477047C046F8B55746DE464E4645
:103930004546E0B599460A9B07009A460D9B884686
:1039400093460B9C9B073BD10C9B9C423DD21E1B7C
:103950000B9415000C005E442A004B4601352100F3
:103960002020B847B542F7D1A0460B9C002C20D0B0
:10397000454636195346321B013C185D29004B461B
:10398000B847002CF6D12B00350098460D9B9B07BD
:103990000FD55B46EC1A0C9BA3420AD946469846C3
:1039A0002A004B46310020200134B84701354445F8
:1039B000F6D32800F0BCBB46B246A946A046F8BDE7
:1039C00016001500002CD3D1E0E71600002CCFD153
:1039D0001500EEE7F0B54F464646D646C0B584B072
:1039E00098460EAB1B7894469946129B0D9C109FEF
:1039F000119E9A0725D4002E65D1BC4221D2012206
:103A00001A409246202C00D1E9E00C9A551E302233
:103A100002E0202C00D17BE001342A55A742F8D8DF
:103A20005246002A0DD0B4420BD20C9A551E3022B9
:103A3000202C02D171E0202C2DD001342A55B44223
:103A4000F9D1DA063CD55A052ED4002C28D10F9A8C
:103A5000102A00D1B6E0022A00D1BCE030220C9C32
:103A6000227001244A46002A65D15A0700D499E001
:103A70002B220C9D2A55013403930C9B6246009324
:103A8000029643460194FFF74FFF04B0E0BCBA46EC
:103A9000B146A846F0BD2024DA06EDD55A0503D478
:103AA000A74266D0B44264D00F9A102A71D0022A7D
:103AB00057D0202CE0D02200013430250C9FBD547B
:103AC000202CD9D0CEE7012215001D40AA461A426B
:103AD00036D04A46002A4AD10C321A4247D1BC425B
:103AE000A1D2202C91D1202E17D82024DA06C3D5BC
:103AF0005A051BD4202F01D0202ED5D11F220F9D77
:103B0000102D6FD0022DD8D162250C9FBD54D0E767
:103B10005246002A79D0202EBDD92024DA06ABD512
:103B20005A0503D4202FE9D0202EE7D00F9A102A6F
:103B3000A2D12024A0E72D220C9D2A5501349BE719
:103B4000BC4200D37DE7202C00D05EE7DA06F0D53A
:103B50005A05EED4202F62D0202EEAD134001F2245
:103B6000CDE7202C00D187E722000134CCE7013ECD
:103B7000B5E7621E012CC2D10F9A102A00D06AE765
:103B80009A063BD558220C9C2270283A6270022477
:103B900068E79A060ED4202CCBD078220C9D2A55AB
:103BA000013486E71A0700D466E720220C9D2A55C7
:103BB000013461E7202CBCD058250C9A12191570DD
:103BC000013476E79A0608D558220C9C22703022E0
:103BD0006270022446E76032F7E77822F5E7002AB0
:103BE00083D1B3E7A21E013C9D0603D478250C9F28
:103BF000BD5460E758250C9FBD545CE778220C9CAF
:103C00002270483A627002242CE7DA0600D433E7C7
:103C10005A058BD4202F00D044E71F226FE73C00C9
:103C20001F226CE710B5002800D110BD01F0E4FBA5
:103C3000FBE7C0460B0010B5002802D049681B689E
:103C4000984710BDF0B557464E464546DE46E0B5AE
:103C500099B08246894690460893229A239B100089
:103C60001900FFF742FC002800D0CDE022982399EC
:103C70000122D94B5242FFF733FC002800D0C3E0A9
:103C8000229823990122D54B5242FFF713FC0028BA
:103C900000D0B9E02298239900220023FFF70AFC04
:103CA000002800D0F1E1229E239F8023269ADB008A
:103CB0001A400D92269A1A4201D10623249380239A
:103CC000269A1B011A403B0093460996334300D0C5
:103CD000B3E0002A00D0C2E1002300240A930B9431
:103CE000002304250993259B0024AB4200D95C1BCB
:103CF0000223269A1A400C92269A134203D06B4252
:103D00006B415B421C40099B002B07D00A9A0B9B1E
:103D100030003900FFF76DFB06000F002298239951
:103D200000220023FFF7C6FB002803D080210906EC
:103D30007B181F00269AAA4B009601971340089EF5
:103D40000493249B03940293424633004946504611
:103D500000F0AAF90400002D67D02020269A4946D9
:103D6000024013005A4253415B42621C18400A92BF
:103D7000330022004530D047099A6F1ED317D4185C
:103D80005C40D30F9B46002501E0202D13D008AAEC
:103D900094461F23200063440A2101355E19FFF772
:103DA000E3F83031317020000A21FFF7DDF82600FA
:103DB0000400092EE9D805230693002304930A334F
:103DC00003935B46089E029310AB0A9A0093494600
:103DD0003300504605970195FFF7FCFD0C9A04004F
:103DE000002A22D04246851A259AAA421DD9B046F9
:103DF0005746160022004346494620200135B84761
:103E00000134AE42F6D810E0269B42460493259B2F
:103E100049460393249B50460293229B239C009384
:103E20000194089B00F040F90400200019B0F0BC98
:103E3000BB46B246A946A046F0BD6A4B78009C46F8
:103E4000400D6044FFF762FB674A684BFFF7EBFAEF
:103E5000674A684BFFF7C8FA674A3B031B0B1A43D4
:103E600004000D0009981100644B0022FFF7B7FA17
:103E7000634A644BFFF7D7FA02000B0020002900C9
:103E8000FFF7B2FAFFF75AFB0990FFF73FFB5E4AD4
:103E90005E4B04000D00FFF7C6FA00225C4BFFF7F3
:103EA000A3FAFFF74BFB5B4A5B4B29000C90200009
:103EB000FFF7B9FA04000C980D00FFF727FB574AEB
:103EC000574BFFF7B0FA02000B0020002900FFF764
:103ED00086FA04000D0002000B000A940B95FFF710
:103EE000A2FA04000D000A980B9902000B00FFF7DC
:103EF0007BFA00220E900F914A4B20002900FFF719
:103F000078FA0022484BFFF76FFA02000B002000FE
:103F10002900FFF76EFA0022444BFFF765FA020012
:103F20000B0020002900FFF764FA0A9A0B9B0D0092
:103F300080210400C9050020FFF751FA02000B00A0
:103F400020002900FFF750FA02000B000E980F998D
:103F5000FFF74FFA0022284BFFF746FA344B0C9C30
:103F60009C46644423050022FFF75DFA04000D001F
:103F700002000B00300039000A940B95FFF79AFA03
:103F800000285DD123002A00C625099963318D429E
:103F9000AD4159466D420435002900D1A3E61343D3
:103FA00063D030003900234A234BFFF791FA0028F1
:103FB00007D0002230003900204BFFF77BFA0028A1
:103FC00053D1249B002B00D18DE60D9B5A1E9341AB
:103FD000249AD31A249386E6FFFFEF7FFFFFEFFFBB
:103FE000FFF7FFFF01FCFFFFFB799F501344D33F16
:103FF000B3C8608B288AC63F0000F03F0000F83F3E
:1040000061436F63A787D23F71A379094F930A4039
:104010000000E03F1655B5BBB16B0240EF39FAFE28
:10402000422EE63F00002C400000244000001840D3
:10403000FF0300002D431CEBE2361A3F80842E4123
:10404000099B0022013B09932000164B2900FFF732
:10405000D0F90A00010003000A910B9294E70023B3
:1040600000240A930B9400230993249A099B9A42F3
:1040700014DDD31A013B24938023269ADB001A43D4
:1040800000230025269209932DE6802212069446ED
:10409000229B1E00239B63441F0006E600232493FB
:1040A000EAE7C04600002440F0B54546DE464E46ED
:1040B0005746E0B595B08B46904699461E9A1F9B91
:1040C0000A9019001000209DFFF70FFA002800D079
:1040D000B0E11E981F990122C74B5242FFF7EAF93F
:1040E000002800D037E11E981F990122C34B52428D
:1040F000FFF7F6F9002800D0A7E01E981F990022CC
:10410000BF4BFFF7EDF9002800D088E01E981F99FB
:104110000022BC4BFFF7CEF9002800D07FE01E98AC
:104120001F9900220023FFF7C5F9002800D0FAE00C
:1041300000230B938023229C229ADB001C401A420E
:1041400000D102E1092D00D87CE106A98C462C00A3
:10415000172200233021093C62440133D154EF1A65
:10416000202B00D132E1A342F7D10022A44B0692CA
:1041700007931E981F99FFF7E1F90500FFF7C6F9AD
:1041800002000B001E981F99FFF729F9069A079B5A
:10419000FFF749F908900991FFF7F4F90600FFF7D6
:1041A000B1F902000B0008980999FFF718F90022ED
:1041B000954B08900991FFF793F9002800D1D2E0C0
:1041C00001363000FFF79EF9069A079BFFF780F94A
:1041D000002801D000260135AA46002F00D098E023
:1041E0002800FFF793F902000B001E981F99FFF7B4
:1041F000F6F8854B002206000F00FFF75BF90CABC9
:104200009A46002845D10022300039007E4BFFF746
:1042100067F900283DD1EB073BD5013539E0229BFA
:1042200042460493219B594603930A981E9B1F9C68
:104230000295009301944B46FFF704FD15B0F0BCC6
:10424000BB46B246A946A046F0BD229B5B0767D499
:1042500003226E4B229901920391219902910093BE
:1042600042464B4659460A98FFF75EFBE6E706AA28
:1042700094461723280063440A2101341E19FEF7CF
:104280004BFE3031280031700A21FEF745FE051E35
:1042900076D0202CEBD10323229A1340012B1DD181
:1042A000219B002B1AD00B9B002B00D0BBE0229A45
:1042B0000C33134200D0B6E0219BA34200D887E024
:1042C00006AB9C4617223023624404E02199013456
:1042D00013558C4259D0202CF8D12024229B0194D4
:1042E0000393219B02935346B9E706AA94461723EA
:1042F0000A216344300001341D19FEF735FE3031C8
:10430000297030000A21013FFEF72EFE092E46D902
:104310000600202CE9D155460CAB20249A46B8E77C
:1043200004223B4B96E71E9A1F9B00200021FFF7BB
:1043300056F801230B938023229C229ADB001E90C7
:104340001F911C401A4200D0FCE60022314B062788
:10435000069207930DE7229B0393219B029304236C
:1043600001932D4B7BE7002208980999264BFFF714
:10437000A1F8002800D02FE7002E4FD101362BE7FF
:104380000323229A1340012B66D0202CA6D00B9B2E
:10439000002B1FD02D235246135501349EE755465E
:1043A000202CB9D030233A19002F08D0172006A9A5
:1043B000013409180B55202CAED09442F6D10CAB29
:1043C0009A462E2352461355013462E72024CCE648
:1043D000202C83D0229B5B0708D4229B1B0700D490
:1043E0007CE7202352461355013477E72B235246AE
:1043F0001355013472E7C046FFFFEFFFFFFFEF7F69
:1044000065CDCD4165CDCDC10000E03F3CE9011057
:1044100034E9011080842E4144E90110F30700D4EF
:10442000DAE60136D8E6219B013B2193A34200D96D
:1044300046E7AAE7229B0393219B02930323019360
:10444000074B0CE7074BEA009B185C681B682F00C2
:104450000693079400248CE6219B002B95D022E73D
:1044600040E90110F00C0210F0B55746DE464E460A
:104470004546E0B5A5B01F002E9B91460D93CA4A54
:10448000CA4B82468B461A60002900D129E20023DC
:1044900038789846002800D12BE2C54B44460C934F
:1044A000C44B55464E460E930AE0631C98462200C4
:1044B00033005946A84744463878002800D187E0A1
:1044C00001372528F1D108239A46043B9946023B3F
:1044D0009846013B00229C460B943878791C0300D7
:1044E000203BDBB2102B03D80C9C9B00E3589F466B
:1044F0000300303B0B9C0B92092B3AD900239846C2
:104500002A2800D1DDE000239A462E284BD0030054
:10451000683BDBB2122B1ED80E9A9B00D3589F46E5
:1045200063460F001A43D8E743460F001A43D4E707
:104530004B460F001A43D0E710230F001A43CCE775
:1045400053460F001A43C8E780235B000B9A787824
:104550001A430B9201310F0067284FD82428A4D9A1
:104560000300253BDBB2422B9FD893499B00CB58DD
:104570009F46002398460B9B47469C4600E001312E
:10458000BB00DB195B001F180878303F0300303B8D
:10459000092BF4D963460B930023B8469A460F00C3
:1045A00001312E28B3D180200B9AC00002430B9218
:1045B00030225242944678780B0084446246092A9D
:1045C00000D8AAE12A2800D1B9E10F0001319EE705
:1045D000A046AA46B146C84503D301235B424B44DB
:1045E00098464B46424659460020D047200025B009
:1045F000F0BCBB46B246A946A046F0BD01006939F1
:10460000C9B20F2900D950E701238B409C466B4B60
:10461000994663464A4613400F9362464B461A42F8
:1046200000D068E10A2956D0072900D03DE70D9B4C
:1046300002CB9846002900D092E10B9B10211A0072
:104640008A43100011310843814680201A00C000BF
:104650000240110003421CD114AB9C461F220F23C1
:1046600062440D959C4615000F9B0B9402E0202B95
:104670000CD0110064460C4020003730092C00D8C3
:1046800007380133E8540A090F29F0D80B9C0D9D17
:104690000F934B4608220693534605920832039225
:1046A000002204930F9B029201931CAB2200009303
:1046B000594633002800FFF78DF9434604000D9357
:1046C000FAE60D9B04CB9046002A79DB78780D93AF
:1046D0000F00013117E70D9B02CB14930B789C461A
:1046E00018005346002B00D134E1002815D0534662
:1046F000013B013399460D940B9C89444A460B00BB
:10470000A14601E0934203D05C780133002CF9D13B
:104710004A465B1A0D9C0B920F938023DB0099464F
:104720000B9A13400D934B461A4204D00F9B5345EE
:1047300001D953460F93022399460B9A13400B93CA
:104740004B46134200D1F5E16346002B00D1D6E180
:104750000D9B002B00D182E10B1BD14631009A4604
:104760003B00A1442E005F464D4622009B468946F1
:1047700009E04B463900541CB0475346185D0028E9
:1047800000D192E122009542F3D14B465A46A94608
:10479000BB46350017001E004C460B9B002B00D07B
:1047A000ADE1149B0D9387E669440010B45A0020D4
:1047B000500B0210940B0210E00B0210419000000D
:1047C0000B9A283802430B92424652427878904620
:1047D0000F000D93013196E678786C2800D15DE1E9
:1047E00080230B9A5B001A430B920131B3E68023BE
:1047F0009B00ABE67878682800D148E180230B9ACB
:1048000001311A430B92A6E6672800D1B2E047288F
:1048100000D11AE1452800D11CE10B9A072104922E
:1048200042460D9B0392073352468B431900029276
:104830000CC92800009201930D91220033005946C3
:10484000FFF700FA040037E6462800D18DE00B9A06
:104850000721049242460D9B0392073352468B4335
:10486000190002920CC92800009201930D912200B8
:1048700033005946FFF718FC04001DE6631C9846F8
:104880002200330059462520A847444614E60D9BD4
:1048900004330F93631C99460B9B9A0700D40AE1DB
:1048A0000D9B2200187859463300A84743464444DC
:1048B000012B00D86FE1B0462E0025004C46B946CA
:1048C0005F4622004346013439002020B047AC4205
:1048D000F7D12C00BB4635004F4646460F9B0D9343
:1048E000EAE5D64B38789A4600239846002800D04F
:1048F000D3E500246FE66F2842D000D8FDE11023F5
:10490000782800D19BE00B9A9A430B920A239C468D
:10491000002314930A330F9338E057460B9AB900DB
:10492000C919490001330F181878303F0100303998
:104930000929F4D9BA460B921F00591CE7E50D9BD3
:10494000B87804CB0237D143C9170A4092460D9379
:10495000791CDCE5002800D1DFE602235B42C8E6D3
:1049600021200B9A0243914676E620230B9A1A43A4
:104970000B926CE780230B9A1B011A430B924CE7B6
:1049800008239C460023149308330F930B9880232D
:104990000200DB001A4011000200184200D080E043
:1049A0000C239A431000802302009B001A400B92B4
:1049B000184200D0F1E0802302005B001A409146CB
:1049C0000D9A04321492184200D0C3E2430600D577
:1049D000D7E0030600D421E30D9B1B880993002B2D
:1049E00000D02DE110339843002900D128E10023A5
:1049F000994643460593534604930F9B06900393B1
:104A0000002302934B4601931CAB220000935946AE
:104A100033002800FEF7DEFF0400C2E6582809D064
:104A2000622800D0E3E202239C4600231493023361
:104A30000F93ABE720230B9A1A430B92103B9C4633
:104A40000023149310330F93A0E780230B9A1B01CC
:104A50001A430B9220230B9A1A430B92DDE60B1B91
:104A60009A460F9B99463B0037005E469B462200C4
:104A70003B003100A84753460134185D0028F6D1A9
:104A80004B460F935B46B3463E001F0085E6C023AE
:104A90000B9AB8781A430B92F91C5CE5C0239B0073
:104AA000F6E70D239A4310007DE75B463500BB46D1
:104AB0004E461F0071E64346012B66D9631E4344F0
:104AC00032002E001D003B00A2465F4691469B46E9
:104AD00022004B46013439002020B047AC42F7D1C8
:104AE0005B463500BB464E46A14654461F000D9B13
:104AF0004A461878594633004444A847EEE60F9BCF
:104B0000A146984500D84CE64444E41AB0462E002D
:104B100025004C46B9465F46220043460134390021
:104B20002020B047AC42F7D12C00BB4635004F46A1
:104B3000464636E60F98804500D873E24346E218B1
:104B4000131A32002E001D003B0091465F469B4623
:104B50000F9122004B46013439002020B047AC426F
:104B6000F7D15B46BB461F0043460F9901330F93B5
:104B70000B7835009C464E466046002800D0E7E59D
:104B80000FE60D9B1B78099329E70D9B22001878EF
:104B900059463300A8474C46A0E60D9AFA3BFF3B26
:104BA00007329A430133994691444B460D9313685B
:104BB000526815921A4306D110329043002209928E
:104BC000002900D083E06122810600D54122D2B2C3
:104BD0000A9214AA91460A9A00210A3A0B92424676
:104BE0001792524618925A46B24609911E001F313A
:104BF000149B4944BB4616941A9500246746984670
:104C00008946159D19901B920AE03032D2B24B466C
:104C100001341A55A8454CD0202C4CD006000D006C
:104C20003A00002330002900FEF7DCF9D2B2092A4D
:104C3000EBD90B9B9C466244D2B2E8E725390010C1
:104C40006123820600D54123DBB20A3B0B93434626
:104C500014A91F228C46159353466244B2460D9404
:104C600017974C468046A9461700099D0F9E16933C
:104C700008E03033DBB201343B55B5420ED3202C73
:104C80000CD0050031002800FEF76EF9CBB20929DF
:104C9000EFD90B9A94466344DBB2ECE7159B404690
:104CA0009846169B4D465646A1469A460D9C179F20
:104CB0009FE6B742B0D9179B56469846189B5F4669
:104CC0009A461B9B09949B46169C19981A9D43462D
:104CD0000593534604930F9B06900393002302937E
:104CE000099B01931CAB2200009359463300280016
:104CF000FEF770FE0400FFF7DFFB10230B9A9A43C8
:104D00000F92692800D091E10B9980230A00DB0003
:104D10001A4010000A00194203D0112118008A43DA
:104D20000F920F9A802311009B0019408C461A4263
:104D30005BD1802311005B00194089460D99043135
:104D40000B911A4200D0B2E013005B0600D4EDE0F4
:104D50000D9B1B781A00D90F0D91002B00D1A3E0F9
:104D6000100014AA944642461F23159252466344EB
:104D7000A846BA464D461494B14604001F00169248
:104D800001E0202D0FD020000A21FEF7EDF80135BB
:104D90007E193031317020000A21FEF7E5F8260037
:104DA0000400092EEDD8159B4E46A9464546984667
:104DB000169B57469A46149C0F9B069343460593B1
:104DC000534604930A2303930D9B02934B4601938E
:104DD0001CAB22000093594633002800FEF7FAFD71
:104DE0000B9B04000D93FFF767FB07220D9B073316
:104DF0009343013294469C4462460D920CCBD90FEA
:104E00000B911100194300D19BE0D9171391129116
:104E10005140109113995940119110981199129A7B
:104E2000139B801A99411090119114AA94464246FE
:104E30000023159252469946169232001F3363445E
:104E4000A8464E46BA4614941F00109C119D9146E8
:104E500001E0202E10D0200029000A220023FEF7B6
:104E6000C1F8013630322B00BA550D002200040083
:104E7000002BEED1092AECD8159B109411954546CC
:104E800098464B46169AB14657461E009246149CC9
:104E90000F9B069343460593534604930A230393BB
:104EA0000B9B02934B461CE7002885D159E70D9BCD
:104EB0001B68DA0F1100002B00D1A6E0DA17981852
:104EC000504014AA91461F2342464B44A8460D94D5
:104ED000169704006546B1461F001491159201E033
:104EE000202D0FD020000A21FEF73EF801357E1953
:104EF0003031317020000A21FEF736F82600040018
:104F0000092EEDD8159BAC4645469846149B4E4657
:104F100019000D9C169F0F9B029106934346059323
:104F2000534604930A230393634650E713001B067A
:104F30006ED50D9B00229B5ED9175A184A4092B23B
:104F400009E7002399460028A2D1002200231092ED
:104F500011936AE70D9B1B689946002B03D1103310
:104F60009843002938D16123820600D54123DBB262
:104F70000A3B0D9343461693534614A91F228C46B1
:104F800017932B0062444D46B246159418978046FD
:104F9000170099460B9C0F9E08E03033DBB20134BA
:104FA0003B55B5420ED3202C0CD005003100280013
:104FB000FDF7DAFFCBB20929EFD90D9A9446634485
:104FC000DBB2ECE7169B40469846179B56464D468B
:104FD0009A460B94189F159C434605935346049399
:104FE0000F9B06900393002302930B9B0BE50B99F9
:104FF00080230A00DB001A4010000A00194200D08A
:105000008BE610239A430F928BE6002883D158E752
:105010000D9B1B68D9175A184A409CE60D9B1B68CC
:105020000993DCE4030001330F93A5E50B926DE4D3
:105030000EB4012230B584B007AC08CC064D010097
:105040000094280052420394FFF70EFA04B030BCDB
:1050500008BC03B01847C0461D3900100CB430B569
:1050600085B008AC08CC064D0A0000940100280069
:105070000394FFF7F9F905B030BC08BC02B018473B
:105080001D39001000B585B00391012102900093F5
:10509000034813004A4202A9FFF7E6F905B000BD34
:1050A000353C00100FB430B50C4985B008AA08CAC9
:1050B0000D680392002D0CD000920122084C524240
:1050C000200002A9A847012005B030BC08BC04B0EC
:1050D0001847180000F0DCF90020F5E7B45A00206A
:1050E000253C001010B5094A0300146884B0002C58
:1050F00008D0012200910648524203A9A04701208E
:1051000004B010BD00F0C4F90020F9E7B45A002043
:10511000253C001000BEFDE7094A03001068002886
:1051200005D00849C3188B4207D81360704706485A
:105130000449C31810608B42F7D901204042F5E7BB
:105140008836002000000420E409012010B5FFF794
:10515000E1FFC04630B50D0083B01900002A0BD026
:10516000074B084C0192009302002B002000FFF730
:1051700099FF0120FFF7CEFF034B1A00F1E7C0466D
:105180004CE901105CE90110D0E7011070B5FDF7A2
:10519000D1FD074D074EB54209D20024013E761BD2
:1051A000B60808CD984723000134B342F9D170BD49
:1051B0004CDB011054DB0110030010B50800110096
:1051C0001B68984710BDC046F0B5C64600B5437D84
:1051D00007000D001600002B38D0002A2EDD00211C
:1051E0006A1E90466A5C037D4C1C00200A2A0CD083
:1051F000A64216D043461B5D21000D3B5A42534147
:105200006A5CDBB24C1C0A2AF2D1002BF0D1884236
:1052100017DB022110483B689847A64207D02000C0
:10522000E8E7864203DD311A3B6828189847AD1934
:10523000013D2B780D3B5A4253413B7580BCB8462B
:10524000F0BD091A3B6828189847E2E70368110087
:1052500028009847F2E7C046400D0210F0B5C64658
:105260000B6806000C0000B5802B06D05A1C22608B
:10527000E418267180BCB846F0BD0F4B1D68002DA8
:1052800016D00B1D98460D4F02E02D69002D0FD052
:105290002B68002BF9D03B68002B01D0AB42F4D136
:1052A000280041462268FFF78FFF2D69002DEFD1BE
:1052B00001220023DBE7C046783600208436002038
:1052C000F0B5DE4657464E464546E0B585B0170078
:1052D0001C0006000D00FDF715FB0023314A1218D3
:1052E0004B41802109068B4202D301222E4B5242B0
:1052F0002E4908008A4618F0C3FB01906B1C03D1AD
:10530000300013F093FE0500002C26D0284B984661
:10531000284B1C68002C15D0002F21D1264F02E00D
:105320002469002C0ED02368002BF9D03B68002B99
:1053300001D09C42F4D120002A003100C0472469EA
:10534000002CF0D1019B002B28D1280005B0F0BC27
:10535000BB46B246A946A046F0BD184B9846D7E7D3
:10536000154B994602ABDF1D0A239B4602E02469D8
:10537000002CE7D02368002BF9D04B461B68002B8C
:1053800001D0A342F3D12A0031002000C0475B4680
:105390000122390020003B70C047E8E7504618F072
:1053A0002FFBD2E740420F00FFFFFF7FE4190020F0
:1053B000C95100107836002084360020B951001001
:1053C0000A4A1368002B05D10CE01A001B69103241
:1053D000002B07D09842F8D1002902D1036913604D
:1053E000016170470029FCD01060FAE77836002090
:1053F00010B500F003FB10BDF0B5CE46474680B5B2
:1054000083B06B460600DD1D2870FDF77BFA002394
:105410001A4A12184B41802109068B4202D30122FD
:10542000174B524217490800884618F029FB164BC3
:1054300081461C68002C14D0144F02E02469002C13
:105440000FD02368002BF9D03B68002B01D09C4281
:10545000F4D1200001222900FFF7B6FE2469002CB8
:10546000EFD14B46002B05D1300003B0C0BCB9468C
:10547000B046F0BD404618F0C3FAF5E740420F00D1
:10548000FFFFFF7FE41900207836002084360020DB
:1054900070B5040013F0CAFD0123010005000122CC
:1054A0002000FFF70DFF084B1C68002C06D0636836
:1054B000002B05D098472469002CF8D1280070BD36
:1054C0002469002CF3D1F9E778360020F0B5CE46F8
:1054D000474680B5A3B004000D00FDF713FA002382
:1054E000294A12184B41802109068B4202D301221E
:1054F000264B5242264F380018F0C2FA002306000D
:10550000019322002B00234801A9FFF7BBFD019B5B
:105510008046002B14D1204B1C68002C06D06368F9
:10552000002B0BD098472469002CF8D1002E25D1F0
:10553000404623B0C0BCB946B046F0BD2469ECE794
:10554000154B1D689946002D1CD0144C02E02D69A6
:10555000002D0FD02B68002BF9D02368002B01D031
:10556000AB42F4D12800019A02A9FFF72DFE2D6964
:10557000002DEFD14B4601951C68CEE7380018F09E
:105580003FFAD5E70195D1E740420F00FFFFFF7FCB
:10559000E41900205D520010783600208436002087
:1055A0000FB400B583B004A901C90191FFF78EFFC4
:1055B00003B008BC04B018477047C0460022014B36
:1055C0001A707047D50901204B790020FF2B0BD1B1
:1055D0008B79002B08D1CB79012B05D1082A03D96F
:1055E000024B8A7809301A707047C046D5090120ED
:1055F0000120704710B5012901D0012010BD1349C9
:105600005379107909781B02034300209942F5D1A0
:105610005378012B08D0022BF0D100206422002106
:10562000FDF7D0FA0120E9E7D37891781B021943FE
:10563000DB0507D54A0A100001231A407E331940C2
:10564000FDF748FB01204A0A4042F5E7D509012051
:10565000004870470C0E021070B5050014000120C0
:10566000012909D153780020012B05D163791279E2
:105670001B021343072B00D070BD21002800024AF3
:105680009F3301F051FAF7E7640D02100123037014
:1056900000487047440D02104B780A781B021343F0
:1056A0008A7810B512041A43CB781B06134396224E
:1056B000D200934200D010BD0022012011004042D0
:1056C000FDF708FB024B1860024B19607047C0469B
:1056D000A4270020A827002010B5024B1878FCF75B
:1056E0008DF810BDD6090120154B70B51A68002A37
:1056F00022D0EFF3108172B610680028FCD0BFF3FF
:105700005F8F00200F4A596010701B68BFF35F8FD6
:10571000186081F31088002400250B4E3078FCF7C8
:1057200061F8002804D1002400252900200070BD64
:105730003078FCF763F8F8E7FA240025A400ECE7DA
:1057400064F40020D8090120D609012070B50400B6
:1057500000200E0001F000FB002836D0002001F0F0
:1057600013FB002831D0FDF7CDF80023184A12189A
:105770004B41802109068B4216D2164D280018F0A5
:105780007FF9002821D0002001F0E6FA00280FD18F
:1057900001200021404200F0FBFC03246442280069
:1057A00018F02EF9200070BD01220B4B5242E4E7A5
:1057B000002001F0E9FA0028EAD0210032000020A0
:1057C00001F0EEFA041EEAD1E7E703246442E9E7B8
:1057D00040420F006C090120FFFFFF7F10B5FDF76D
:1057E00091F800230E4A12184B41802109068B4282
:1057F00002D301220B4B52420B4C200018F040F90F
:1058000000280CD001200021404200F0C1FC002003
:1058100001F012FB0028F5D1200018F0F1F810BDBE
:1058200040420F00FFFFFF7F6C090120F8B5DE4604
:10583000574680B505000C00FDF764F80023374A91
:1058400012184B41802109068B4202D30122344BAE
:105850005242344908008A4618F012F9002803D150
:10586000C0BCBB46B246F8BD002001F075FA002866
:105870004AD00026002C43DD2B4B9B4614E0A9198F
:10588000002001F015FB070001200021404200F03C
:105890007FFC002001F0D0FAFDF734F8224BF61916
:1058A00018605960B4422BDD002001F021FBA71BDA
:1058B0000200B84200DD3A00002AE0D101200021B8
:1058C000404200F065FC002001F0B6FA002001F033
:1058D00043FA002814D0002001F00AFB0028E1D18F
:1058E000FDF710F85B460F001A685B6800218446DC
:1058F0000E4812184B419F4202D8D3D19445D1D9BA
:10590000504618F07DF8ABE700200021064B1860E8
:105910005960504618F074F8A2E7C04640420F00A4
:10592000FFFFFF7F6C090120C01B002020A10700A2
:1059300030B52B4C85B00021200018F091F80028DC
:105940001CD1284B1A68002A16D0EFF3108172B6CA
:1059500010680028FCD0BFF35F8F012422485960F3
:1059600002781B68D2B20470BFF35F8F002018600A
:1059700081F31088002A17D005B030BD0120002126
:10598000404200F005FC002001F0FEF90500200077
:1059900018F036F8002DEFD0144B1B68002BEBD01D
:1059A000134A10689847E7E7FCF75AFC0400FCF735
:1059B000A9FFFA220023920012184B418021090608
:1059C0008B4202D301220B4B524201210291002152
:1059D0000191094920000091FCF7C6FCCCE7C046C4
:1059E0006C09012064F40020D8090120A4270020BC
:1059F000A8270020FFFFFF7FE9560010D02310B535
:105A00001B0684B01C68FCF72BFCFCF7A9FDA04228
:105A100002D0002004B010BD294B1B7801F072FDAC
:105A200028480368002B47D00120FCF78BF9FF239F
:105A3000254C264920701840FBF7FEFE20780121F6
:105A4000FBF7BEFE0520FBF7E1FE002826D1082269
:105A500000211F48FDF756FFFCF702FC0400FCF78D
:105A600051FFFA220023920012184B4180210906AF
:105A70008B4202D30122174B524201210291002195
:105A80000191154920000091FCF76EFC0028C0DB55
:105A900012480121FFF794FC0120BBE70120FBF72E
:105AA0005DFE0B4B01001800FCF7CCF9002205202D
:105AB0000B49FBF7EBFEEBE7FCF79AF9B4E7C046BE
:105AC0004CFB05106C090120D6090120315900104A
:105AD00064F40020FFFFFF7FE956001070120020E1
